:020000041000EA
:1000000000B5324B212058609868022188439860DF
:10001000D860186158612E4B002199600221596106
:100020000121F02299502B49196001219960352056
:1000300000F044F80222904214D00621196600F024
:1000400034F8196E01211966002018661A6600F04E
:100050002CF8196E196E196E052000F02FF8012189
:100060000842F9D1002199601B49196000215960AB
:100070001A491B48016001219960EB211966A021F2
:10008000196600F012F800219960164914480160C1
:100090000121996001BC002800D000471248134993
:1000A000086003C880F30888084703B5996A0420EC
:1000B0000142FBD001200142F8D103BD02B5186610
:1000C0001866FFF7F2FF186E186E02BD00000240BE
:1000D000000000180000070000035F00212200005C
:1000E000F4000018222000A00001001008ED00E03C
:1000F00000000000000000000000000074B24E7A12
:1001000000200420F7010010C3010010C5010010F9
:10011000C1010010C1010010C1010010C101001097
:10012000C1010010C1010010C1010010C701001081
:10013000C1010010C1010010C9010010CB01001065
:10014000CD010010CD010010CD010010CD01001037
:10015000CD010010CD010010CD010010CD01001027
:10016000CD010010CD010010CD010010CD01001017
:10017000CD010010CD010010CD010010CD01001007
:10018000CD010010CD010010CD010010CD010010F7
:10019000CD010010CD010010CD010010CD010010E7
:1001A000CD010010CD010010CD010010CD010010D7
:1001B000CD010010CD010010CD010010CD010010C7
:1001C00000BE00BE00BE00BE00BE00BEEFF3058054
:1001D000103800BEF2EB8871243605104C3605103D
:1001E0003402001090A31AE700201F49086006C8D7
:1001F00081F3088810471D48006800282FD10DA4FE
:100200000ECC002902D000F012F8F9E71849194A7B
:10021000002000E001C19142FCD1174988471749ED
:1002200088471749884700BEFDE701C901C29A42C5
:10023000FBD370474C360510C0000020300A002068
:10024000BC3F05100000042000000420BC3F051046
:10025000001004200010042000000000704709482E
:1002600001F0C4FE0047000008ED00E0000000D0EF
:10027000300A0020BCD10020BD6E0010F503001034
:10028000796E00105756000006005250ABB3605311
:100290005094011006005250861C0302689401100D
:1002A000060052505422A29D749401100500525031
:1002B000DE65F468BC3F0510F8B5C0460448054B40
:1002C00010B5834203D0044B002B00D0984710BDDB
:1002D000300A0020300A00200000000006480749CC
:1002E000091A8B10C90FC91810B5491003D0044B57
:1002F000002B00D0984710BD300A0020300A0020A3
:100300000000000010B5074C2378002B09D1FFF73F
:10031000D5FF054B002B02D0044800E000BF0123AD
:10032000237010BD380B002000000000805A01101F
:10033000054B10B5002B03D00449054800E000BF71
:10034000FFF7CCFF10BDC046000000003C0B0020B2
:10035000805A011010B5024808F068FE10BDC04672
:10036000805A011010B5024808F060FE10BDC0466A
:10037000985A011010B582B00400074808F056FEE4
:10038000064B01930093064B064A0749200000F0F4
:100390006BFF02B010BDC046AC5A0110E808002047
:1003A000550300105B0700000409002030B585B03C
:1003B00005000C00080015F08FFA83B2094A039279
:1003C000094A029200220192009222000749280065
:1003D00000F090FE011E01D105B030BD044808F0C8
:1003E00055FEF9E7E808002065030010C45A011023
:1003F000D05A011010B508F055FE164801F04EFA1B
:1004000000281AD101F02AFA134B144A144915484E
:1004100001F0B2F9002814D100F01EFF041E14D020
:10042000FFF7A8FF10492000FFF7C0FF0F4808F0B2
:10043000FDFD0F4806F0C4F8F4E70E4808F0F6FD9D
:10044000E0E70D4808F0F2FDE6E70C4808F0EEFDA5
:10045000E8E7C046444500001027000004004000C3
:10046000045B0110445B0110945B01109C5B011064
:1004700088130000E45A01104C5B0110685B011006
:100480000E2800D900208000014BC0587047C0469C
:10049000B06B0110C38801339BB2C380002B01D124
:1004A0000133C380C08870470388C21811710133BB
:1004B0009BB20380FF2B01D9002303807047438840
:1004C000C0180430704703884088181A80235B02E4
:1004D000984201D30130FF3080B27047002800D02D
:1004E0000060704710B5FFF7DFFF10BD70B5050065
:1004F0000C00090AFFF7D8FFE1B22800FFF7D4FF8C
:1005000070BDF8B507000E001500002405E0315D50
:100510003800FFF7C9FF0134A4B2AC42F7D3F8BDED
:10052000F8B506000F001500110AFFF7BDFFE9B28C
:100530003000FFF7B9FF002405E0395D3000FFF718
:10054000B3FF0134A4B2AC42F7D3F8BD70B50500D7
:1005500004A8007805AC24880901D600082232409E
:100560000A4352B25B0006211940114349B20122ED
:1005700002401143C9B22800FFF7B4FF07E000238F
:100580001943C9B22800FFF7ADFFE40906D07F2167
:1005900021407F2CF3D980235B42F1E770BD10B579
:1005A0004368002B04D08068022902D800219847B4
:1005B00010BD0D214942FAE7F0B583B007000D00E8
:1005C00001921E00002801D0002405E00B4806F02F
:1005D000F1FCF9E70134E4B2AC420CD22001381846
:1005E00003689842F6D1002303604660089B83604D
:1005F000019B838100E0002003B0F0BDA45B0110EB
:1006000070B506000D004C1CA4B200280FD00134B8
:10061000A4B2ED09FBD13000FFF755FF80235B004A
:100620001B1AE00FDA17A3425041C0B270BD024856
:1006300006F0C0FCEBE7C046C85B0110F8B5060049
:100640000F00002803D033680024002508E00D487F
:1006500006F0B0FCF7E7DA89141924B21D001B6814
:10066000002BF8D11E2C06DC1E231C1BFC81002D48
:1006700005D02F60F8BD044806F09CFCF4E7376015
:10068000F8E7C046EC5B0110105C011070B5050086
:100690000C00FF2909D869886418A4B26C80FF2C6B
:1006A00002D9611EFF39698070BD024806F082FCE4
:1006B000F1E7C046485C011070B506000D00002847
:1006C00001D0346807E0104806F074FCF9E7200018
:1006D000FFF704FF3468002D14D0002C12D0ABB209
:1006E000E1898B420CD3C9B26D1AEDB22368336035
:1006F0006368002BEBD003214942A0689847E6E7E6
:10070000C91AE18170BDC046885C011070B5051E34
:1007100001D0286807E0064806F04CFCF9E70468B9
:10072000FFF7DCFE20000028F9D100232B6070BD0C
:10073000B05C011070B505000C00002802D02868DC
:10074000002205E00E4806F035FCF8E702000068DC
:10075000002802D08389A342F8D100280CD0002AB7
:100760000BD0036813600368002B03D0C289D989BA
:100770005218DA810023036070BD03682B60F2E732
:10078000D45C011070B504000D00002801D00023D6
:1007900008E0064806F00EFCF9E71A01A2181260FC
:1007A0000133DBB2AB42F8D370BDC046F45C01103C
:1007B000F0B5C64600B584B005000E00FFF783FE15
:1007C00004006A8880235B009B1A984200DB9CB27D
:1007D0006423F75A002E07D0002F01D0002C07D138
:1007E00004B080BCB846F0BD344806F0E3FBF3E744
:1007F0006B882A88009222003900314808F046FCB4
:10080000BC4222D22800FFF75EFE84428041434270
:10081000984627002800FFF752FE01004346002BB0
:1008200016D003233A00300010F00EFB041E02D154
:100830004346002B0ED1002C36D139002800FFF79B
:1008400025FF300010F0F0FFCAE700239846E1E7EB
:100850000123E7E739002800FFF718FF6423F75A60
:100860003C002800FFF72FFE0390698880235B007F
:100870005B1A984214DA0200944206DB039A9A4209
:1008800010DB80277F007F1ABFB22800FFF717FE1A
:10089000010001233A00300010F0D6FA0400CAE744
:1008A0001A00E9E70700F0E7200014F0C3FE020099
:1008B0002100044808F0EAFB92E7C046185D0110E9
:1008C000385D0110905D011010B5837A032B01D0C3
:1008D000002010BDEC30FFF76BFFF9E7F0B5C6461E
:1008E00000B582B00400884616001F000500EC35F4
:1008F00002212800FFF784FE002816D0022301936E
:10090000002300933B00002241462800FFF71EFE13
:1009100031002800FFF7EAFDE1682800FFF748FFF3
:10092000002002B080BCB846F0BD4046FFF7A8FDED
:1009300001003200024808F0A9FB01204042F0E724
:10094000C45D011070B50500837A032B01D000202F
:1009500070BD00230380838002E02000FFF7BEFD0E
:10096000280018300021FFF7E5FE041E09D00848D2
:1009700008F05CFB6368002BEFD00021A06898476B
:10098000EBE7E9682800EC30FFF712FFDFE7C0462D
:100990000C5E0110F0B5DE4657464E464546E0B5C2
:1009A00083B004000E00150000936C23C75C3F0960
:1009B000836E994243D82A007319802B43DC022F9F
:1009C00047D00D2F00D16EE0032F00D170E0012D34
:1009D00000D827E10C9B1B781B020C9A56781E430B
:1009E00000D125E1052F00D128E1062F00D131E10A
:1009F000092F06D00B2F04D0072F02D0042F00D0D0
:100A00004BE1200018303100FFF794FE041E00D1A6
:100A100039E13800FFF734FD01003200A44808F046
:100A200035FB092F00D121E16368002B02D00021A2
:100A3000A06898472000FFF751FD00272BE09D4854
:100A400006F0B8FAB7E79C4808F020FB80277F0043
:100A500021E0A37A022B1AD1012D13D90C9B5978CE
:100A60000F00964808F012FB002F14D100232380BA
:100A70000333A3726369002B0DD03A002169200073
:100A8000984708E08E4808F0D1FAFE3703E08D4819
:100A900008F0CCFA0027380003B0F0BCBB46B246E1
:100AA000A946A046F0BD884808F0C0FA0027F2E742
:100AB0006C21615C4908032008408046A16E994280
:100AC00034D02F0000239946002F02D1009B002B29
:100AD000E1D14B46DB199D4200D29BE0256E002DF3
:100AE00008D00C994944009A53425341DBB23A0072
:100AF000E06DA847009B002B00D0D5E04346002BBB
:100B000000D1D3E0012B00D18AE005252800FFF7B2
:100B1000B7FC010022896D4808F0B8FA2289002349
:100B200029002000FFF7DAFE0027B4E78021891BA7
:100B3000002833D00220431C9A4231DD0C9B1B78E5
:100B40001B020C9A52789B189BB2821CAA1A9342E1
:100B50002CDC081A0238834228D80C9A02329246BA
:100B60009A1C92B2914610004246002A24D00222DA
:100B700082188A4222D84246002A2BD0821C9542F3
:100B800022D30C9A125C12020C998C466044417874
:100B900052182281191D8AB291461DE00020CAE731
:100BA0004B4808F043FA80277F0074E7494808F073
:100BB0003DFA80277F006EE70122D9E7464808F01A
:100BC00035FA80277F0066E7444808F02FFA80272F
:100BD0007F0060E7002222819B46D3445246D35CCB
:100BE000019300235A4613704B46EF1ABFB2009B85
:100BF000FE18330052464146394808F047FA636E02
:100C0000002B03D032005146E06D98475B46019AB5
:100C10001A7059E7334808F009FA80277F003AE74D
:100C2000042573E7304808F001FA80277F0032E797
:100C30002E4808F0FBF980277F002CE731002C4874
:100C400008F024FA0123320006212000FFF746FEB7
:100C5000002720E73100274808F018FA0023320067
:100C600007212000FFF73AFE002714E7022D05D9DF
:100C70000C9B99782000FFF792FCDBE61E4808F0F9
:100C8000D5F9F73707E73800FFF7FAFB0100320024
:100C90001A4808F0FBF90027FDE63900184808F06B
:100CA000F5F980277F00F6E60027F4E60027F2E654
:100CB00040620110485E01106C5E0110BC5E0110C4
:100CC000845E0110F05E01102C5F0110F4600110D1
:100CD000645F01109C5F0110DC5F01102060011057
:100CE00064600110BC6001103C6101106C61011076
:100CF000B4610110F461011070620110A062011072
:100D0000E462011070B504000D00002829D0E068ED
:100D1000002811D000210DF0E1F80021E0680DF06D
:100D200001F90021E0680DF0EBF8E0680DF0D8FC67
:100D3000061E1AD10023E36020001830FFF7E6FCFE
:100D400021000F4811F096F8A37A002B08D0002359
:100D5000A3726369002B03D02A0021692000984701
:100D600070BD084806F026F9D1E7E0680DF0ECFA0E
:100D7000300014F05FFC0100034808F087F9D9E760
:100D8000BD0D0010206301103C63011010B504007C
:100D90000200084808F07AF9002C07D00023E3602D
:100DA000802149002000FFF7ADFF10BD024806F08A
:100DB00001F9F3E75863011090630110F0B583B0B7
:100DC000041E09D0A17A02290AD003291FD02F4876
:100DD00008F05CF903B0F0BD2D4806F0EBF8F1E740
:100DE000238801339BB223809A00D318632B05DC40
:100DF00022002849284810F0D7FFEBE7274808F0E1
:100E000015F90221FF312000FFF77CFFE2E7200007
:100E100018300231FFF750FC6388002BE8D0A2881D
:100E2000013292B2A28091008A1859085B189A4246
:100E30000CDC0125238801339BB223809A00D31850
:100E4000628893420CDA002DC4D0D1E7144808F030
:100E5000EDF80221FF312000FFF754FF0025E9E7FC
:100E6000104808F0E3F82600EC3600213000FFF7C8
:100E7000C7FB0028E7D00027019700970023002236
:100E80000C213000FFF762FB2780DCE77C64011057
:100E9000B0630110BD0D001088130000D463011071
:100EA0000C64011044640110F8B504000E00151E16
:100EB00023D100278766134930000DF00FF812493F
:100EC00030000DF01DF80222104930000DF03CF802
:100ED0000F4808F0ABF80223A37222000D490E4818
:100EE00010F062FF27800D4808F0A0F8E1682000AC
:100EF000EC30FFF75DFC2800F8BD1100084808F051
:100F0000C5F8F8E75D10001045090010C908001089
:100F1000E4640110BD0D001088130000206501106D
:100F2000B8640110F0B5DE4657464E464546E0B57A
:100F300083B007008A46002399460024984600267D
:100F400017E0BB6E9C4257D23B196C331B78994615
:100F50000134E4B2012C0CD97F234A461340A11E70
:100F6000CA00521A934042461A4390464B461B060B
:100F700051D553461D89B54263D9012CE1D94B4661
:100F80001B06DED4AD1BADB2454501D343469DB231
:100F90008022121B92B2954200D91500BB6E7F2BA6
:100FA00005D953465B89991B8D4200DD8DB239000E
:100FB0006C31091900962B0050460CF0EFFB83466C
:100FC000BB6EE918B9667619B6B243465B1B984604
:100FD0002A00204808F05AF85B46009343462A004E
:100FE00021003800FFF7D6FC00282BD14346002B08
:100FF000BFD1BB660024BCE7751CADB231005046C2
:101000000CF0C8FC8146BB6E5A1CBA66FB186C33E8
:1010100018702E009CE711000F4808F037F843467F
:10102000002B04D0E318BA6E9B1A9846A1E700255E
:101030000095002221003800FFF7ACFCBD660024BB
:1010400097E7002003B0F0BCBB46B246A946A046D5
:10105000F0BDC0469065011050650110F0B583B039
:1010600004000F0015001E0000281ED0E368BB42DC
:1010700002D01C4805F09EFF002D1AD0002E22D170
:10108000298938000CF0C4FE29002000FFF74AFF30
:101090000190070028000CF0FFF8002F1DD1638895
:1010A000002B17D00023A38014E00F4805F082FF27
:1010B000DCE70E4807F0BAFF802149002000FFF767
:1010C00021FE002606E03100094807F0DFFF280076
:1010D0000CF0E2F8300003B0F0BD01992000FFF7FA
:1010E00011FEDCE7F4650110D06501101C660110EB
:1010F0005C660110F0B5DE4657464E464546E0B503
:1011000087B005000E0004921F0010AB1B789A46B2
:1011100011AB1B78994600285BD0002E5DD0AB7ACE
:10112000002B5ED0300014F0D7FB444B98425ED8C1
:1011300083B29B460404240C0234E4195346002B6A
:101140005BD10023039380235B029C425BD2A4B259
:10115000320039003A4807F099FF28001C30139BF1
:101160000093129B039A0421FFF726FA05900028AA
:1011700060D0EC239846A84421004046FFF740FA8F
:10118000002846D001944B46009353460022032189
:101190004046FFF7DBF95A4631004046FFF7C0F9F9
:1011A0005346002B3BD1049B002B01D0002F3BD199
:1011B000280018300599FFF741FAE9684046FFF723
:1011C000F7FA002007B0F0BCBB46B246A946A046DD
:1011D000F0BD1C4805F0EEFE9FE71B4805F0EAFE57
:1011E0009DE71A4807F052FF0B204042EAE71848F3
:1011F00007F04CFF10204042E4E702342800FFF7DC
:1012000049F903909FE7134807F040FF1020404240
:10121000D8E70598FFF762F901204042D2E7039929
:101220004046FFF763F9BEE73A0019004046FFF772
:1012300068F9BDE701204042C4E7C046FDFF000059
:10124000206701107C6601109C660110B8660110D1
:10125000D8660110FC66011010B5F8214900012084
:101260000BF0A2FC10BD0000F0B5DE4657464E461E
:101270004546E0B589B00400884603921F00139EDE
:10128000002800D114E14346002B00D114E1002EC8
:1012900000D115E13368002B00D115E1A57A002DAE
:1012A00000D015E1236E9B46636E9A46E36D994626
:1012B000F82252000021200007F0A0FD5B462366C3
:1012C000534663664B46E365129B23616761B389AE
:1012D000638020001C300421FFF754FA3069002895
:1012E00000D111E17769002F00D111E1337EDB00DD
:1012F00018251D4004231D43EDB2737E002B02D040
:1013000020231D43EDB214F0E7FA0290FF2800D924
:10131000E5E0002800D1E9E06B461B7A0493380031
:1013200014F0DAFAFF2800D9E7E0C3B20593FF23EF
:10133000029F1F400E370340DF19BFB270680028BC
:1013400000D1FEE080235B421D43EDB214F0C4FAED
:1013500080225202904200D3DEE0002800D1E2E079
:1013600083B20793BB1C0004070CFF1880235B02A9
:101370009F4200D3DEE0BFB2B068002800D1F8E0A1
:1013800040231D43EDB214F0A7FA8022520290428E
:1013900000D3D9E0002800D1DDE083B20693BB1C66
:1013A0000004070CFF1880235B029F4200D3D9E0A2
:1013B000BFB202232B43DBB20293306814F08CFAE5
:1013C00080235B02984200D3D6E083B29B46BB1CCD
:1013D0000004070CFF1880235B029F4200D3D2E079
:1013E000BFB2EC239946A14439004846FFF708F9FB
:1013F000002800D1F7E000200DF0CAF8E0600028D6
:1014000000D1F4E021000CF065FD00227A49E0688B
:101410000CF06CFC8246002800D0BBE0404614F083
:1014200001F90100039B9A461A00744807F02EFE4A
:10143000734B52464146E0680CF0D4FD82460028CA
:1014400000D0B8E06F49E0680CF06CFD0123A37296
:10145000019700230093002201214846FFF776F808
:10146000042269494846FFF75BF804214846FFF724
:1014700039F802994846FFF735F8B1894846FFF731
:1014800035F85A4631684846FFF74AF86B0700D5E9
:1014900096E06B461B7A5BB2002B00DA9DE06B0690
:1014A00000D480E0B168069A4846FFF739F87AE040
:1014B000564805F07FFDE6E6554805F07BFDE6E67B
:1014C000544805F077FDE5E6534805F073FDE5E681
:1014D000524807F0ABFD0A235B429A4663E050484E
:1014E00007F0D4FD06235B429A465CE04D4807F0C6
:1014F000CDFD06235B429A4655E04B4807F0C6FDFA
:1015000006235B429A464EE0059504950A2715E7A7
:10151000059504950A2711E7444807F0B7FD06230F
:101520005B429A463FE0424807F0B0FD06235B422B
:101530009A4638E03F4807F0A9FD06235B429A46E9
:1015400031E00023079317E73B4807F09FFD062390
:101550005B429A4627E0394807F098FD06235B4234
:101560009A4620E0334807F091FD06235B429A46F5
:1015700019E0002306931CE7314807F087FD062396
:101580005B429A460FE02B4807F080FD06235B4242
:101590009A4608E001002B4807F078FDE0680CF05F
:1015A000D3FE0023E360504609B0F0BCBB46B24610
:1015B000A946A046F0BD0100234807F067FDEDE70E
:1015C0006B461A8A31694846FEF7AAFF6B469A8A2B
:1015D00071694846FEF7A4FF5BE7079A71684846C1
:1015E000FEF79EFF5BE701235B429A46DBE70123A0
:1015F0005B429A46D7E7C04658C401109C6A011066
:10160000A90E00108D0D0010186B01105C67011001
:1016100080670110A8670110D467011008680110E5
:101620003068011070680110B06801101C69011069
:101630005C690110EC680110A0690110E0690110FB
:10164000246A0110606A0110D86A0110033006286C
:101650000FD88000094B1B589F460948704709481E
:10166000FCE70948FAE70948F8E70948F6E70948B6
:10167000F4E70948F2E70948F0E7C046406C01107A
:10168000346C0110FC6B0110046C01100C6C011027
:10169000186C0110286C0110EC6B0110F46B011038
:1016A000F0B585B005000C001600002915D0280003
:1016B00014F012F90700002C11D0200014F00CF9DE
:1016C0000300002203920292019600942A0039003E
:1016D000044803F095FD05B0F0BD0026E7E70023C0
:1016E000EFE7C04608120020F0B583B0089F099EBE
:1016F000FFF7D6FF0190002830D104250CE0FFF75A
:10170000A5FF0100194807F0C1FC25000FE0019B6F
:1017100000E0019BDB0724D4002D1CDB032D1AD035
:101720000021134803F0D8F904008542E7D100F006
:1017300047FB3800310004F04DFF0E4B5B6A9E42C0
:10174000E7D80C48806AB84203D29E42DFD001231A
:10175000E0E70123DEE7032D00D00195019803B0F7
:10176000F0BD01235B420193F8E7C0465C6C0110B9
:101770000812002000400540F0B5CE46474680B52F
:1017800083B006000F009046994604F0B5FF0400B0
:101790000D1E18DBFA22920000234846002107F0B4
:1017A000C1FA24184D41002D13DB002D15DB0094E8
:1017B0000195424639003000FFF796FF03B0C0BCE8
:1017C000B946B046F0BD084B084A3F21084805F02D
:1017D00057FB01246442074DE7E7034B034A3F21CF
:1017E000034805F04DFBC046706C0110B06D011050
:1017F0008C6C0110FFFFFF7F10B505F0F3FB0000BC
:1018000010B582B00C000A4807F010FC684600F0E2
:10181000E1FA06226B46991C200007F0F5FA2378BE
:1018200001229343237002221343237002B010BDA0
:10183000F06C011010B5080003490622034B9C46CA
:10184000614407F0E1FA10BD081200208809000089
:10185000014B18687047C0460809002010B50A4AB5
:101860000A4BD35C002B08D0FFF7F2FF03000122E4
:101870000021054803F05EFC10BD054B054A1A2106
:10188000054805F0FDFAC046081200206C0800006B
:10189000286D0110C86D01104C6D011010B5024B80
:1018A000186000F061F910BD0809002010B501288A
:1018B00013D880000F4BC1500F4B1B78D02212065B
:1018C000126893420FD0002B12D00C4A1C32802396
:1018D0009B01134302221A6010BD094B094ADF2104
:1018E000094805F0CDFA094B187803F017FEF3E725
:1018F000074AEBE7FC240020A8D10020304101403A
:10190000E46D0110706F0110186E0110B0D100204D
:101910000041014010B5D0231B061B68002B04D0EA
:101920000F4BDB6A9B0702D410BD0E4BF9E7002278
:101930000221182003F056FDD0231B061B68002B44
:101940000CD0074A1C32C0239B01134302221A60A9
:10195000054B19680020FFF7A9FFE5E7014AF1E709
:1019600030410140004101400012002010B5034900
:101970000120FFF79BFF0248002110BD85190010D0
:1019800050C3000010B510F095FA094B19680029F2
:1019900008D0084B1B68002B04D0013B054A13609C
:1019A000002B00D010BD0020FFF780FFFAE7C046F3
:1019B000001200200412002070B50400D0231B0682
:1019C0001B68104A12789A4214D1002004F08AF859
:1019D000002815DBC0B20C4D28700C4903F0C0FD87
:1019E0002878012103F092FD2878210003F0D2FF2E
:1019F000012070BD064B074A9F21074805F040FAB9
:101A00000020F6E7A8D10020B0D100201D1A001058
:101A1000946E0110446F0110186E011010B51D4B2B
:101A20001A78D0231B061B689A4213D100211A484A
:101A300013F0DEFF002829D0174B5B79012B0FD064
:101A4000164B01221A70144814F00AF8144813F0C7
:101A5000AFFF10BD134B144A8121144805F010FA52
:101A6000134B01221A70002400E00134012C09D824
:101A7000A300104A9A58002AF7D00E490020585067
:101A80009047F2E70A4B00221A70DCE7034B012271
:101A90001A70DBE7A8D10020F8110020AFD1002098
:101AA000F0110020B86E0110286F0110186E01109F
:101AB000ACD10020FC24002010B5094B1878002878
:101AC00000D110BD002103F021FD054C207805490F
:101AD00003F08AFE207803F0F7FF00232370F0E77D
:101AE000B0D100201D1A001010B5EFF30583002BB4
:101AF00002D004F00DFE10BD04F0B8FCFBE70000BE
:101B000010B5EFF30583002B00D010BD0100024893
:101B100013F09EFFF9E7C046F011002010B50F4BFF
:101B20001C68002C0FDA00220221182003F05AFC56
:101B300080200B49800103F00BFCFFF7BDFF094833
:101B400003F098F910BD04F04DFB210004F014FCE3
:101B5000024B012252421A60E5E7C0460C09002000
:101B6000151900100812002010B584B0D0231B06F0
:101B70001A682D4B1A702D4805F0D7F82C4803F041
:101B800033F9012200212B4803F0C4FF04F02AFBA3
:101B9000040004F0B1FD02000B1E2DDB26480021DD
:101BA00012184B41002B2DDB002B2FDB0121029162
:101BB0000021019121490091200004F029FB204BD4
:101BC000186000282DDB802040221E49800103F090
:101BD0009FFB01220221182003F004FC01210D20AB
:101BE00003F094FC0AF028FAFF20FFF7E5FE002836
:101BF00012D0002004B010BD134B144A3F211448EA
:101C000005F03EF901225242124BCDE70E4B0F4A2E
:101C10003F210F4805F034F9FFF780FF02204042D2
:101C2000E8E702204042E5E7A8D10020F8110020B3
:101C300008120020F011002050C300006D190010A0
:101C40000C09002015190010706C0110586F01105C
:101C50008C6C0110FFFFFF7F10B5012202211820BC
:101C600003F0C0FB10BD10B501000020FFF71EFE01
:101C700010BD000010B5024813F0CAFE10BDC046EA
:101C8000F811002010B5084B5B79002B09D0064BEA
:101C90001B795BB2D0221206127852B29A4200D15E
:101CA00010BD024805F086F9F8110020DC6E011025
:101CB00010B50E4B5B79012B0CD10D4B1B78002B13
:101CC0000CD10C4B1B68002B04D00B4B1968002067
:101CD000FFF7ECFD054813F0C3FE10BD0A21074BCA
:101CE000074AFF31074805F0CBF8C046F81100203D
:101CF000ACD10020FC24002000120020FC6E01105A
:101D0000146F0110186E011070B5060004F0F4FC99
:101D100004000D1E0FDBFA22920000233000002188
:101D200007F000F80019694100290ADB00290CDBE3
:101D3000FFF7DAFE70BD084B084A3F21084805F05E
:101D40009FF8012040420749F0E7034B034A3F2137
:101D5000034805F095F8C046706C0110586F0110EB
:101D60008C6C0110FFFFFF7F70B50400002504F0AC
:101D7000C3FC02000B1E0ADB200029008018594119
:101D800000290ADB00290CDBFFF7AEFE70BD084B13
:101D9000084A3F21084805F073F8012040420749EE
:101DA000F0E7034B034A3F21034805F069F8C046BA
:101DB000706C0110586F01108C6C0110FFFFFF7FD9
:101DC0007047000010B5024800F03CF810BDC04656
:101DD00008CF002010B50822014907F015F810BD02
:101DE00008CF002010B5002901D000230AE0114BD4
:101DF000114A1F31114805F043F800240DE0373235
:101E0000C25401334A1E9A420FD90F2B0DD85A08DB
:101E10000B4CA25CDC07F0D40424224114000F22F6
:101E20002240092AEBDC3032EAE7C01800230370B5
:101E300010BDC046906F0110FC6F0110986F01102B
:101E400008CF002070B588B0040004AD00260496C9
:101E50000922002105A806F0D1FF009609220021E1
:101E600001A806F0CBFF4B232B700D2269462800FA
:101E700013F0A6FD002304E05A1D69468A5CE25473
:101E80000133072BF8DD08B070BD0000EFF31080C0
:101E900072B6034B1B68002BFBD0BFF35F8F7047FC
:101EA0002C0100D0BFF35F8F024B00221A6080F339
:101EB000108870472C0100D0F8B506000C00150002
:101EC000FFF7E4FFE308F718F15C07222240012343
:101ED00093400B4205D1DBB20B433B70FFF7E2FFAF
:101EE000F8BD2100280005F065F8F0B583B00600C4
:101EF000019114001F00FFF7C9FF00E00134BC424C
:101F00000CD8E308F518F35C0721214001228A4030
:101F10001A42F3D1D2B21A432A7001E0012464427A
:101F2000FFF7C0FF002C02DB200003B0F0BD019BD7
:101F3000002BF9D0089805F03DF8000070B50500B9
:101F40000C00FFF7A3FFE308EE18EA5C07210C4042
:101F50000123A340134204D09A433270FFF7A2FF3B
:101F600070BD034B034A2C31034804F089FFC0467F
:101F7000A471011024720110C4710110034B1B687D
:101F800002201840431E9841C0B2704700C006406E
:101F9000002307E0054A9A189200BFF35F8F0021E3
:101FA000116001331F2BF5D97047C0464000003443
:101FB000054A1078431CDBB21370172B02D91300AB
:101FC00010221A707047C0461009002000B583B077
:101FD0000100044B00931F2318220348FFF785FFDD
:101FE00003B000BD34720110C011002010B5010013
:101FF00018231B8814221088984710BD10B50100C3
:1020000018231B8816221088984710BDF0B5C646C5
:1020100000B507000E0000250123984600E00135B9
:10202000B5420AD2AC003C192068FFF7DFFF206000
:102030000028F4D100239846F1E7404680BCB8461A
:10204000F0BD002805D0D0231B06802292045A61DF
:102050007047D0231B06802292049A61F8E710B5DE
:1020600084231B01C4580020FFF7EBFF21791820BF
:1020700003F004F910BD000010B50400052005F0C0
:10208000B9F8000C6043034906F0B6FA0338FDD2F4
:1020900010BDC0469A3B000010B50120FFF7D1FFEC
:1020A0006420FFF7E9FF10BD70B5050084231B0114
:1020B000C458002C18D00623E356002B08DB052259
:1020C000A256531C11D106216156206809F072FEF8
:1020D0000720205600280DDA0820205600280EDAA6
:1020E00084231B010022EA5070BD0749206809F0D3
:1020F000BFFEE8E709F088FFFF23E371ECE709F092
:1021000083FFFF232372EBE770750110F0B5DE4605
:1021100057464E464546E0B593B0824610AA894BD5
:1021200003CB03C28849894809F072FE002800D118
:10213000EAE001238422120151468A58002A00D085
:10214000EAE0834C842212018C50990010AA88582E
:102150002060FF222272E27106332371002109F010
:1021600039FE40B2A071002800DADBE0784C7649F5
:10217000206809F061FE43B2984663711022002185
:1021800008A806F03BFE80256D020895F8235B0247
:1021900009938023DB020A93C0273F030A9710228A
:1021A00008A904A806F030FE43465A1D059B039378
:1021B000684818404346DB0118431203104305905A
:1021C000079B0393DB00DB088022920590461343B4
:1021D0000793614B994618400590102204A90CA85A
:1021E00006F012FE80239B020C935C4801683022AB
:1021F0008A435B490A6000680122934616008643C1
:102200000E600F99039157480840574901430F91B9
:10221000564801400F430F9755493940554F0F43DA
:102220000F97FF00FF0841460F430F970D99039149
:1022300049460398014089460D914F4F0F970E99DB
:1022400003914E49039801400D430E954C490D40B2
:102250001D430E952168383180239B010B4380215B
:10226000490419602068062161564B005B18DB00A9
:10227000C318C826B4469C4466460C9A3260CC22E9
:1022800094469C4462464E461660D02294469C4436
:1022900062461560DC331F605B4600931D2209F027
:1022A00061FE2179182002F0E9FF21791D2002F05A
:1022B000E5FF01220021182002F0F8FF012118207B
:1022C00003F00EF80622A25653009B18DB0022688A
:1022D00094466344D8332B4A1A60002009F09CFED0
:1022E000E071002009F098FE40B220720723E35607
:1022F000002B1DDB00281BDB002013B0F0BCBB460D
:10230000B246A946A046F0BD0F491F4809F080FD1E
:10231000002813D000230DE71C4B1D4A68211D48DF
:1023200004F0AEFD5046FFF7BFFE06204042E4E752
:102330005046FFF7B9FE06204042DEE70620404245
:10234000DBE7C046D47401107075011000003050F6
:10235000B41100207F00FEFFFFFFFF9F78C0014007
:1023600078D00140E0FF0FFC18001000FF7FF0FF65
:102370001FFCFFE30003000418771C24FFFF0AFE84
:10238000FFFFF5C101E00000000020505072011075
:102390006075011060720110F0B5DE4657464E467A
:1023A0004546E0B583B00D0016009946002900D1DE
:1023B00083E184231B01C458FFF751FE4B46002BD9
:1023C00000D1F1E1002D00D17DE1B30700D087E11C
:1023D000A846AB0700D089E14B469B0700D08BE1B4
:1023E0000C9B9B0700D08DE1226806216156136883
:1023F0000125280088408343136006216156052388
:10240000E3565A1D924648004218D2002768BC463F
:102410006244CC321268CB4F3A40DB011343524640
:10242000120313434018C00062461118CC310B60F0
:102430000622A25653009B18DB00D0331A002368F3
:102440009C46624480235B011343802212061A607B
:102450001A6006216156802252041300206809F098
:1024600033FD0623E35604332900994080239B0162
:1024700022681A4311600622A256083229009140B0
:102480000A0021680B431A600623E356F200013A62
:1024900004339B0021685A500622A25653009B1811
:1024A000DB00226894466344D833A74A1A600623A7
:1024B000E3560C9A921BD200013A04339B00216828
:1024C0005A500622A25653009B18DB0022689446FD
:1024D0006344D8339D4A1A60062161560523E356AA
:1024E0001F221A404B005B18DB0021688C466344B6
:1024F000D8331A600722A2562B009340A020C005B3
:10250000934943509101A023DB059C466144CB686D
:10251000DB01F7D4082020560123834061468C4A12
:102520008B508101A023DB059C466144CA6880234F
:102530005B04110019401A42F3D10722A256854BC1
:102540000C2A00D9E4E084480340D20213430C2251
:102550009343043A1343814A1340814A1340814A0A
:10256000134001221343804A1340022293438022E6
:10257000D20313430622A2567C482568854200D127
:10258000CCE0082012183F2A00D9C9E0784803405F
:10259000D2031343072020560622A2560432950088
:1025A000226894466544B2088001A027FF05BC4616
:1025B00060444746076045608260C360082020563B
:1025C000644B0C2800D9B1E0634D2B40C00203439B
:1025D0000C208343043803436048034060480340B1
:1025E00060480340012003435F48034002208343C7
:1025F0008020C00303430620205604305B4D27682B
:10260000AF4200D0082141183F2900D994E0584832
:102610000340C9030B4320210B4310398B4308208F
:10262000205649468919062565570835AD002768A3
:10263000BC46AC440C9DAD08AA1A8001A025ED054E
:10264000A84640446546056041608260C3602168D9
:10265000062020560B6801228240934313430B60EF
:102660000722A2569301A021C9058C4663441B6929
:10267000DB01F7D40822A2569301A021C9058C469C
:1026800063441B69DB01F7D432000021484606F0A1
:10269000B5FB2368062161564A005218D2009B18E8
:1026A000D833344A1A60FFF7F7FC002003B0F0BCBF
:1026B000BB46B246A946A046F0BD002B00D078E646
:1026C00005204042F2E7002E04D00C9B9E4201D22E
:1026D0004D467AE6284B294AEA21294804F0D0FBE6
:1026E000284B264AF021264804F0CAFB264B234AF1
:1026F000F121234804F0C4FB244B204AF221204856
:1027000004F0BEFB224B1D4AF3211D4804F0B8FB28
:10271000204B214AC421214804F0B2FB080031E7D4
:102720001F4B204AB6211D4804F0AAFB194B1A4A38
:10273000C4211A4804F0A4FB194B1A4AB6211748C1
:1027400004F09EFB7F00FEFF206000004060000060
:102750004404000010801F00FF87FFFF3FF8FFFFC9
:10276000FFFFBFFFFFFFDFFFFFFF7FFF00002050E5
:10277000FF7FE0FF03A00000C87201104C7501103C
:1027800060720110EC7201100073011018730110D7
:10279000307301104473011030750110647301101F
:1027A000D073011018750110002D00D171E7A946F2
:1027B000AB0700D0FDE0B30700D001E1226806219D
:1027C000615613680127380088408343136006224E
:1027D000A256052565576B1C984650008118C90004
:1027E00023689C466144CC310B687F490B40E9016A
:1027F0000B43414609030B438018C0006246121880
:10280000CC3213600622A25653009B18DB00D03353
:102810001A0023689C46624480235B011343802294
:1028200012061A601A6006216156802252041300B3
:10283000206809F049FB0623E35604333900994028
:1028400080239B0122681A4311600622A256083297
:10285000390091400A0021680B431A600623E356B1
:10286000F200013A04339B0021685A500622A25616
:1028700053009B18DB00226894466344D8335B4ABC
:102880001A600623E35604339B00002221685A5045
:102890000622A25653009B18DB002268944663442C
:1028A000D833534A1A60062161560523E3561F2286
:1028B0001A404B005B18DB0021688C466344D83318
:1028C0001A60072020568740A022D205494BD750D6
:1028D0008301A022D20594466344DA6880235B0416
:1028E000110019401A42F3D10722A256424B0C2A7A
:1028F0006DD842480340D20213430C229343043A5A
:1029000013433F4A13403F4A13403F4A13400122BA
:1029100013433E4A1340022293438022D2031343BF
:102920000622A2563A482568854200D0082151184F
:102930003F2952D8374A1340C9030B430722A256F6
:102940000621615604318900206884466144B60836
:102950009201A020C0058446624448461060516040
:102960009660D3600622A2561832012319009140C6
:102970000A0021688A602068062565570168AB4017
:1029800099430B43036023689B681A42FBD021687C
:10299000062020560B680122824093430B600621DB
:1029A00061562068002300930133182209F0DAFAF7
:1029B0006FE61E21184B194AFF31194804F060FADE
:1029C0008F21184B154A4900154804F059FA164B47
:1029D000164AC421164804F053FA164B164AB6217B
:1029E000134804F04DFAC0467F00FEFF206000004F
:1029F000406000004404000010801F00FF87FFFFBC
:102A00003FF8FFFFFFFFBFFFFFFFDFFFFFFF7FFF7D
:102A100000002050FF7FE0FF007301104C75011093
:102A200060720110EC7201104473011030750110D6
:102A300064730110D07301101875011010B51720C0
:102A400002F0E0FCD024240680231B0463620022F1
:102A50000121172002F02AFC182002F0D3FC802369
:102A60005B046362A361192002F0CCFC80239B0409
:102A70006362636110BD70B5D024240680252D04E7
:102A8000A561142003F09CFD6561FA2003F098FD18
:102A9000182002F0B7FC80235B04A36270BD000025
:102AA00070B584B005000E0014000822002102A8B1
:102AB00006F0A4F9012E18D036078023DB05334336
:102AC000E2020D4C22401343042213435BBA0293EB
:102AD0000823009302AB00212800FFF75DFC0028CB
:102AE00001D1039840BA04B070BDC121034B044A20
:102AF0004900044804F0C4F900F8FF0FE473011022
:102B0000047501106072011030B587B001291DD025
:102B10000024231D09078025ED052943D2020D4D10
:102B20002A400A431343039323000833009303AB63
:102B300004220021FFF730FC002805D1002C07D02B
:102B400002239B0003AA985807B030BD0424E0E795
:102B50000123F6E700F8FF0F30B587B001291DD03B
:102B60000024A31C09078025ED052943D2020D4D41
:102B70002A400A431343039323000833009303AB13
:102B800004220021FFF708FC002805D1002C07D003
:102B900002239B0003AA985807B030BD0424E0E745
:102BA0000123F6E700F8FF0F30B587B001291DD0EB
:102BB0000024631C09078025ED052943D2020D4D31
:102BC0002A400A431343039323000833009303ABC3
:102BD00004220021FFF7E0FB002805D1002C07D0DC
:102BE00002239B0003AA985807B030BD0424E0E7F5
:102BF0000123F6E700F8FF0F10B584B00C07C021E1
:102C000009062143D202084C22400A4304210A4308
:102C100052BA02925BBA039300230093082202A9DE
:102C2000FFF7BAFB04B010BD00F8FF0F30B585B058
:102C30000D07C02424062C43D2020E4D2A40224305
:102C40000424224302920393012907D00023009316
:102C5000082202A9FFF7A0FB05B030BD06490434E5
:102C6000445006494250064A835085231B0182681E
:102C7000C250EBE700F8FF0F4C08000044080000CA
:102C80004808000030B585B00D07C02424062C4349
:102C9000D2020E4D2A402243022422430292039381
:102CA000012907D000230093082202A9FFF774FB33
:102CB00005B030BD06490634445006494250064A24
:102CC000835085231B018268C250EBE700F8FF0F99
:102CD0004C080000440800004808000030B585B0EA
:102CE0000D07C02424062C43D2020E4D2A40224355
:102CF0000124224302920393012907D00023009369
:102D0000082202A9FFF748FB05B030BD0649073489
:102D1000445006494250064A835085231B0182686D
:102D2000C250EBE700F8FF0F4C0800004408000019
:102D300048080000F0B583B005001E00012933D01B
:102D400001293FD00020F71C03239F437C1EFF2353
:102D5000DB009C4238D283199C4644424441090717
:102D60008023DB051943D3021D4A134019436346F0
:102D700019430434A4002C19231D6160C019021DDD
:102D80000092042200212800FFF706FB041E22D136
:102D900029001C31089B994203D03200180006F02C
:102DA00033F8200003B0F0BD402B04D89B188020DE
:102DB00000028342C4D9F3210A4B0B4A49000B4855
:102DC00004F05EF80420BEE7EA21094B064AFF3111
:102DD000064804F055F80100064806F057F9E0E708
:102DE00000F8FF0F00740110F07401106072011000
:102DF000447401106C740110F0B5D646474680B596
:102E000083B005000F0090469A46012934D05346FE
:102E1000DE1C03239E43721EFF23DB009A4239D23D
:102E2000022F3DD028001C300A9B98424DD00A9BAF
:102E3000984204D8334BEB180A9A93425AD83B076E
:102E4000C021090619434346DF022F4A17400F43AA
:102E500053461F43AF6152460A9905F0D5FF29003A
:102E60001831321D002300932800FFF795FA03B0B4
:102E7000C0BCBA46B046F0BD402B04D843448022C3
:102E800012029342C3D98021204B214A8900214854
:102E900003F0F6FF204B1E4A20491E4803F0F0FFC6
:102EA000FA24A4002000013C002806DD08220021AD
:102EB0002800FFF729FE8306F4D5002CB2DC184861
:102EC00006F0B4F806204042D1E73F07C0231B06B6
:102ED0003B434246D7020C4A17403B4352461A43F3
:102EE000AA6129001831321D002300932800FFF742
:102EF00053FABCE787210B4B054A8900054803F0CC
:102F0000BFFFC0461C08000000F8FF0F007401104E
:102F1000DC740110607201104474011002020000A0
:102F2000C87A011088740110012805D0022801D048
:102F3000002070470148FCE70148FAE700401018FC
:102F400000301018F8B507000C0016001D000B88A3
:102F50004988C9430904090C8B4225D10B2B29D977
:102F6000817B227A91422BD1237ABB7362790F2322
:102F70001340022B06D8627A7B7BD31ADBB2142B68
:102F800000D87A7320880C281ED062790F23134052
:102F9000012B52D0022B39D0002B1BD03F4806F01A
:102FA00045F80B204042F8BD3D4806F03FF80220AE
:102FB0004042F8E73B4806F039F803204042F2E788
:102FC000394806F063F8CFE7384806F02FF80420B8
:102FD0004042E8E71B280DD9E379E3185A8911002C
:102FE0003A8A8A420CD110331C1B001B30602B60C4
:102FF0000020D8E72E4806F019F805204042D2E715
:103000002C4806F043F806204042CCE710280ED9A1
:10301000E379E3189A78D978890004315B181C1B8E
:10302000041BD007204330602B600220BBE72248FE
:1030300005F0FCFF07204042B5E710281CD9E379D2
:10304000E318DA78920004329B181C1B041B1A7BCD
:10305000882A1DD15A7B6C2A1DD1DA7C002A11D115
:103060001A7D102A0ED15A7D182A0BD1183C3460D3
:1030700018332B60012096E7104805F0D7FF082091
:10308000404290E70E4805F0D1FF0A2040428AE70F
:103090000920404287E70920404284E79C760110DE
:1030A000847501109C750110B8750110E075011050
:1030B00000760110247601104C7601106C76011018
:1030C0008C760110F8B5CE46474680B50700B02390
:1030D000C35AB42286589A19016C8A4207D8040050
:1030E0003C34E418A61900239946984606E00123CB
:1030F0005B4283602DE0A04602356419B44212D2CF
:1031000022786578AB1CE318B342F5D8302AF2D0A8
:10311000DD2AF1D1A01CD93A104912F063FB002836
:10312000EAD1A146E8E74346002B00D004234A46F3
:10313000002A01D0022213434C22BA5AD20601D5EA
:10314000012213438421785AFF2202407A528822B6
:10315000BB54C0BCB946B046F8BDC0469C7B01100C
:10316000F8B58D1E033086080A002B0006E0108893
:1031700054882404204301C30432013E002EF6D1BA
:103180008C1E0B881A021B0A13430B8061680A0EFF
:103190000B0AFF273F023B401A430B02FF2636046F
:1031A00033401A4309060A436260A068010E030A0D
:1031B0003B40194303023340194300060143A16019
:1031C000E068030E9C46030A3B4067463B43070208
:1031D0003E40334300060343E360452A01D0280004
:1031E000F8BD0829FBD12800FFF76CFFF7E70000C6
:1031F00010B5012906D1012B0BD0042B0CD1FFF700
:1032000083FC10BDAC21084B084A4900084803F074
:1032100037FEFFF7C9FCF4E7AE21064B034A49002D
:10322000034803F02DFEC046AC760110407C01102F
:10323000C876011020770110F8B5CE46474680B514
:1032400005008946002916D1002426001E4F2300C0
:103250003A0001212800FFF741FD23003A00012137
:103260002800FFF73BFD4B46002B06D00323984672
:10327000032700240FE00124E7E7012398460027F5
:10328000F7E70120FEF740FD33000F4A0121280037
:10329000FFF724FD01343F2C0DDC0B4A01212800EF
:1032A000FFF782FC0028ECDB43460340BB42E8D139
:1032B000FF28E6D003E04946044805F0E7FEC0BC1D
:1032C000B946B046F8BDC0461F0001002C7701107A
:1032D00010B501235940C9B2FFF7AEFF10BD000081
:1032E00010B5012907D1012B0CD0042B0ED1029B64
:1032F000FFF79CFC10BDB121084B094A4900094861
:1033000003F0BEFD029BFFF7E9FCF3E7B321064B98
:10331000034A4900034803F0B3FDC046AC760110F0
:10332000307C0110C87601102077011030B583B0D1
:103330000500CC0BE4038368A3420FD063401B0E4F
:103340000ED1AB686340FF221204134210D1AB6868
:103350006340FF221202134213D1AC6003B030BDB0
:10336000230E009301230B4A0121FFF7B9FFE8E781
:10337000230C00930123084A01212800FFF7B0FF26
:10338000E5E7230A00930123044A01212800FFF7FF
:10339000A7FFE2E70C0001000B0001000A0001009A
:1033A00070B505000C001600FFF7C0FF6404620C46
:1033B000042E0CD0330001212800FFF719FF040070
:1033C000C02149052800FFF7B1FF200070BD802310
:1033D0001B021A43EEE7000070B504000800FFF777
:1033E000A3FD80231B01C518012229002000FFF73F
:1033F000D7FF012229002000FFF7D2FFC30701D524
:10340000002070BD024805F011FE06204042F8E79A
:103410005077011070B505000800FFF785FD040026
:103420008123DB00C11801222800FFF7B9FF032325
:103430000340012B09D180231B01E1180122280040
:10344000FFF7AEFFC30704D470BD044805F0EEFDDE
:10345000F1E7024805F0EAFDF6E7C0466C77011097
:10346000F0B583B005000C0016001F00FFF75EFFEB
:103470006404620C042E0CD0009733000121280054
:10348000FFF72EFFC02149052800FFF74FFF03B0CB
:10349000F0BD80231B021A43EEE7F8B504000D00CF
:1034A0001600FFF799FF2800FFF73EFD0500812376
:1034B000DB00C718002E26D023230122390020006C
:1034C000FFF7CEFF012239002000FFF769FF8023BC
:1034D0001B01E918002301222000FFF7C1FF012092
:1034E000FEF712FC002E10D021230122390020000B
:1034F000FFF7B6FF012239002000FFF751FF01203E
:10350000FEF702FCF8BD0323D7E70123EDE7000037
:10351000F0B5DE4657464E464546E0B585B0814695
:10352000039114009B461300FF33FF2293439846F8
:103530005B46002B2FD140230293039B002B4AD1E3
:103540005B46002B2FD10E9B9C466444474BE518ED
:10355000C824A4002700103F2B191A00123A127831
:10356000113B1E7836021643FA235B009E4234D28A
:103570002C19133C2378002B2FD15024A64221DD97
:10358000381B033828180922394912F0D3F90028CA
:103590001AD00134F2E780252D012900354805F0C5
:1035A00075FD0295C9E7661E760A4D461C350E9BD1
:1035B0009919013902222800FEF71EF9013E760210
:1035C000A41BC7E701246442631C06D0381B0338E0
:1035D000281805F02BFD002423E0274805F026FDE0
:1035E000062040423BE0029E039BE1184D046D0C17
:1035F000AA1980231B029A421CD84846FFF796FE60
:103600005B46002B1DD10E9B9A46A2445346009365
:1036100033002A0001214846FFF7EEFB00281ED1A7
:103620003C0044451AD2029B1F194745DBD943464B
:103630001E1BD9E7ED21114B114A4900114803F037
:103640001FFC1C234B449A46610A0E9B9C46614416
:10365000029B5A0A5046FEF7CFF8D7E7002005B084
:10366000F0BCBB46B246A946A046F0BDE0FCFFFF59
:10367000B877011080770110C4770110EC77011042
:10368000187C0110C8760110016000238360037369
:10369000012242738373038200228274C2748422E3
:1036A00012018350704710B5FEF7FEFC10BD10B537
:1036B0000400002909D0837C002B00D110BD002319
:1036C00083740121FFF704FEF8E701F0F9FBA37C06
:1036D000002BF3D100212000FFF7FAFD0123A37492
:1036E000ECE70000F0B585B0070003911500C37C3E
:1036F000002B05D1006801F0DBFB002800D189E038
:1037000000213800FFF7D3FFFB7C002B0ED00026F2
:103710000020FA239B009E422CDA08220021380068
:10372000FFF7F2F9431C25D10136F2E7042200210C
:103730003800FFF711FA060084B2394B1B88A34208
:1037400004D00104090C86230B4208D1002C0AD1B5
:10375000334B1C80B306DAD40120404236E03148B6
:1037600005F094FCF2E72300042200213800FFF763
:1037700089FAEDE7431C50D0C30538D5430A5B05F1
:103780005B0D591EC022D200914221D282071FD464
:103790003E001C360096002202213800FFF7CAFACC
:1037A000002813D1B98B002902D1FB8B002B23D029
:1037B0000123FB74FA8B080050401B4B984223D125
:1037C0002B00039A31003800FFF7BCFB05B0F0BDB9
:1037D0001900164805F05AFC0123154A012138004A
:1037E000FFF77CFA0023FB7401204042EEE7002340
:1037F000FB7401204042E9E70E4805F047FC002336
:10380000FB7401204042E1E70B4805F03FFC01203A
:103810004042DBE701204042D8E701204042D5E7A3
:1038200096D1002034780110FFFF0000607801106D
:103830000D000100807801109C78011010B582B055
:1038400004000BE001990098FFF78AFC01002000BA
:1038500001F03CFB02E00E4805F018FC01AA6946A5
:103860002000FFF73FFF0100431C0ED0031DF5D0E1
:103870000128E7D00228EED1009AD10F5200520859
:10388000019B206801F0D8F8E8E702B010BDC046FF
:10389000C8780110F0B5D6464F4680B587B0040011
:1038A0008A4603921E00002902D0022900D08EE031
:1038B00000212000FFF7FBFEA37B002B28D1627BB9
:1038C000237B9A4224D0039B0C339AB23280D2439A
:1038D0007280227B3271524672710022B27152465E
:1038E000022A00D171E00C22F2710022327272724F
:1038F000B272F272227B0132227300960022022100
:103900002000FFF779FA07B0C0BCBA46B146F0BD57
:1039100002F0F2FE002913DB18D0FA2292000023F5
:1039200004F0A8FE0100A27B237B607B0090294865
:1039300005F0ACFB284B9F6A284B9946B94426E01A
:10394000274B284A3F21284803F09AFAFA21890098
:1039500004F052FE0100E6E7A17B227B637BE81BBB
:103960000090224805F092FBA94617E005990498BB
:10397000FFF7F6FB0100200001F0A8FA15E0ED1BAF
:103980001B4B9D4219D8FA208000FEF7B9F8124B64
:103990009D6A4B46EA1A174B9A42DDD805AA04A93C
:1039A0002000FFF79FFE0128E0D0A17B0029E6D18F
:1039B000627B237B9A42E2D085E7227B637B0E48C1
:1039C00005F064FB012040429DE70C328CE70520A6
:1039D000404298E7EC780110004005406079FEFF16
:1039E000706C0110507C01108C6C01100879011072
:1039F00040420F009F8601002C79011070B5050030
:103A00001400180004AA137826001236802212012E
:103A100096421FD82A222026AE5400262A002A3297
:103A200056709170D670002B0DD0A2B200232900E1
:103A30002E3109F06BFE2B001C33A21D0221280041
:103A4000FFF728FF70BD2200010028002E3005F08E
:103A5000DBF9F0E705204042F4E7F8B506001F0067
:103A600018001C3080231B0198421ED8358A01356E
:103A7000ACB2348224040C43079B19030C43B2629A
:103A80003B041B0CF3623463002373633000383053
:103A90003A00069905F0B8F933001C333A001032A9
:103AA00000213000FFF7F6FEF8BD05204042FBE79D
:103AB000F0B5CE46474680B585B0050088469146AC
:103AC0001F000D9B01930C9B00933B00FFF7C5FF6C
:103AD000234B9E6A14E0029ABA4200D93A00039935
:103AE0000C9811F0A3FE34E003990298FFF738FB1D
:103AF0000100280001F0EAF9FA208000FEF700F842
:103B0000174B9C6AA41B174B9C421AD803AA02A904
:103B10002800FFF7E7FD041EDDD00128E4D00228CD
:103B200006D00028E8DB01000F4805F0AFFAE3E714
:103B3000029AD10F52005208039B286800F07CFFC4
:103B4000DAE73B004A464146084805F09FFA01245F
:103B50006442200005B0C0BCB946B046F0BDC046C6
:103B6000004005403F420F00507901107C79011060
:103B700030B583B014004D004A0802212940069D4B
:103B8000019500932300FFF793FF03B030BD0000C1
:103B9000F0B5DE4657464E464546E0B583B00500D3
:103BA0008A46904638239946814400262BE02C4FC4
:103BB0008023DB009B46B344C3452BD28024E40022
:103BC000284908220831484605F01EF94023EF52E3
:103BD00002330222EA526C640027AF6428004C30A2
:103BE00031005144220005F00FF923001B33072256
:103BF00093430132019749460091FF320221280088
:103C0000FFF756FF5E4646450AD2002ECFD08027EA
:103C10007F01CDE704231F43BFB243469C1BCFE780
:103C2000104913221431484605F0EEF88322002390
:103C300001934B4600931323520000212800FFF705
:103C400037FFAB6B002B06D103B0F0BCBB46B246CE
:103C5000A946A046F0BD044805F018FAF4E7C046AE
:103C6000021000009C7B0110A8790110F0B5D64627
:103C70004F464646C0B582B007008A4614009946B2
:103C8000382398468044080011F026FE0600451CA3
:103C90002A005146404605F0B7F845442C70230AE7
:103CA0006B70230CAB70240EEC70731D0822494618
:103CB000019141460091FF3202213800FFF7F8FEE2
:103CC00002B0E0BCBA46B146A846F0BDF0B5CE465B
:103CD000474680B583B00500884616009946070020
:103CE0003837080011F0F8FD441C381932004946F5
:103CF00011F09CFD22004146380005F085F8A3191B
:103D000008220A9901910097FF3202212800FFF74B
:103D1000CFFE03B0C0BCB946B046F0BD70B582B0AE
:103D200004003834382543551E0A013546551E0C0B
:103D3000013546551B0E01354355069B01930094F2
:103D40000423FFF7B5FE02B070BDF0B5D6464F466E
:103D50004646C0B582B080468A4615001C0038230E
:103D600043449946080011F0B7FD0600471C3A008D
:103D70005146484605F048F84F443D702B0A7B7089
:103D80002B0CBB702D0EFD70721D4A441470230A5B
:103D90005370230C9370240ED4703300093308221F
:103DA0000A99019149460091FF3202214046FFF7EE
:103DB0007FFE02B0E0BCBA46B146A846F0BD0000A6
:103DC000F0B5C64600B582B004000D0006003836D6
:103DD000774908222831300005F016F82B041A0C18
:103DE000D2B2402162541B0E0131635400200131D4
:103DF0006054002143302154280C00D0C5E0FF302E
:103E000044256055013560550135605501356055D3
:103E1000482022544922A35400254A23E554013363
:103E2000E154413A01950096373BFF3202212000D0
:103E3000FFF73EFE3220FDF767FF5D490722343170
:103E4000300004F0E1FF83220195009680235200A8
:103E500000212000FFF72CFE3100564805F016F92E
:103E600000950023402202212000FFF757FF002386
:103E7000002251492000FFF7F9FE002301224F499B
:103E80002000FFF7F3FE002308224D492000FFF732
:103E9000EDFE002304224B492000FFF7E7FE00233C
:103EA000002249492000FFF7E1FE484B9B6A606809
:103EB000191A474A914200D872E020004E3013226E
:103EC000FF2104F09BFF5022A35C08218B43A354E5
:103ED00008318B43A3540332A35C0127BB43A35493
:103EE0008B43A3540132A35C303188468B43A354E7
:103EF0000232A15C7F230B40A354443A3549300081
:103F000004F082FF08220025019500962923FF3244
:103F100002212000FFF7CCFD3220FDF7F5FE38230B
:103F2000E7540133E5540133E5540133E5540133DB
:103F3000E7540133E55401335E22E2540133E55482
:103F40004346E55401339D32E25420004230C53AE5
:103F5000002104F053FF0095330040221E49200049
:103F6000FFF7B4FE3220FDF7CFFE01950095002348
:103F7000022202212000FFF79BFD3220FDF7C4FE44
:103F8000002002B080BCB846F0BD4427E0552D0E9D
:103F9000452025540020462560550135605537E7FA
:103FA000C01A0E4B9C466044FDF7DEFE85E7C04616
:103FB0009C7B0110C0790110C4790110D0790110E7
:103FC000D8790110E8790110F4790110004005401A
:103FD000EF490200047A0110187A0110F04902003A
:103FE00070B582B004000D00060038360D49142269
:103FF0003C31300004F008FF832200230193009637
:104000001433520000212000FFF752FD041E02D09D
:10401000200002B070BD06223100280004F0F4FE3A
:10402000F6E7C0469C7B0110F0B5C64600B586B0E9
:1040300005000E00B94B9B6A4360FEF767F8041E4B
:1040400012D1FEF7FBFCFEF716FD092C4ADC142208
:1040500000212800FEF724FDB14B984208D0012032
:10406000FDF752FE0134F0E7AE4804F0DFFF3CE01C
:10407000AD4B002200212800FEF7BEFD002834D100
:10408000002200212800FEF73FFD04231D2200210D
:104090002800FEF723FE002827D1992304220021BF
:1040A0002800FEF71BFE00281FD1BE230622002198
:1040B0002800FEF7E7FD071E17D108239B4A0121C0
:1040C0002800FEF70BFE3C00092C6BDC974A01210F
:1040D0002800FEF769FD430611D40120FDF714FE08
:1040E0000134F1E7924804F0A1FF924804F09EFFEA
:1040F00006277F42380006B080BCB846F0BD0023DA
:104100008A4A01212800FEF7E9FD0022012128004A
:10411000FFF762F9002202212800FFF75DF9002273
:1041200002212800FFF7B9F903230422824928005D
:10413000FFF796F90023042280492800FFF790F941
:104140007F4B9846009300237E4A00212800FFF70A
:10415000DFF9C0227C4B0093002392007B492800AA
:10416000FFF7D6F97A4B04227A492800FFF778F94D
:10417000002201212800FFF790F901212800FFF714
:1041800049F93C00FA239B009C422EDA674A012140
:104190002800FEF709FD03060AD40120FDF7B4FD4F
:1041A0000134EFE76C4804F041FF06277F42A1E7A6
:1041B000F023042269492800FFF752F92023684AB6
:1041C00001212800FEF78AFD3C00FA239B009C4257
:1041D00074DA082200212800FEF796FC83060AD430
:1041E0000120FDF791FD0134EFE75E4804F01EFF6A
:1041F00006277F427EE75C4C220001212800FEF763
:10420000D3FCC3B202200343DBB222000121280009
:10421000FEF764FD0823F02200212800FEF75EFD72
:104220000223424A01212800FEF758FD4F4A01218E
:104230002800FEF7B9FCC3B2C20745D54C4C0F238A
:10424000220001212800FEF749FD00232200012160
:104250002800FEF743FD220001212800FEF7A4FC00
:10426000042200212800FEF777FC83B2C20734D471
:1042700000212800FFF71BFADB2189024144F622C6
:1042800092002800FFF784FC00230022394928000F
:10429000FFF7ECFC0023012237492800FFF7E6FC7A
:1042A000002E20D0002E00D124E7002300933300FD
:1042B000062232492800FFF709FD1BE7304804F0C9
:1042C000B5FE06277F4215E701221343DBB2274ADA
:1042D00001212800FEF702FDB0E70422002128009A
:1042E000FEF7D0FCC4E7274B1A0054325B6D0293F3
:1042F000928802AB9A8004A92800FFF771FE00287B
:1043000006D1062202A904A811F06CFA0028C9D12E
:1043100004A90020FDF774FA04AEC3E7004005408D
:10432000ADBEEDFE247A0110B30402000E000100C0
:10433000407A01105C7A01101040001844400018C7
:104340004CC60110BE6B0300687C0110FCFC07002A
:10435000C0003FFFFCFF07007C7A011024200018FA
:1043600008000100A87A01101E0001001F000100D2
:104370000F000100C4790110D0790110D87A011022
:10438000C07A01109C7B0110F0B5D6464F464646D8
:10439000C0B582B004000E001D00002A03D0C82A58
:1043A00002D9C82200E001229000821852000023A6
:1043B00025492000FFF75AFC00232A00234920004A
:1043C000FFF754FC00230A9A21492000FFF74EFC16
:1043D00000230B9A1F492000FFF748FC0025009599
:1043E0003300562202212000FFF798FC26003836C1
:1043F00038239A46373B5246A35438339946E554FE
:1044000001339846E5543B27E55501950096363B28
:10441000363202212000FFF74BFB5346E5544B4652
:10442000E5544346E554E55501950096363B8E220A
:1044300002212000FFF73CFB002002B0E0BCBA469E
:10444000B146A846F0BDC046E87A0110F87A0110DE
:10445000047B0110107B0110F0B5DE4657464E4636
:104460004546E0B5A3B005000E00904699462D9C48
:10447000002308228249FFF7F9FB631C00D1C4E046
:10448000804B9C4200D1CCE07F4B9C4200D1CBE0E2
:104490007E4B9C4200D0EFE004239A46FF2323404A
:1044A00000270097862202212800FFF737FC23000F
:1044B0005A1E93410097002275492800FFF745FCDA
:1044C000012300975B42002272492800FFF73DFC60
:1044D0000097714B002271492800FFF736FC002C31
:1044E00000D0A4E00024009401231422022128001B
:1044F000FFF714FC00940023162202212800FFF786
:104500000DFC00945346A52202212800FFF706FC6B
:10451000634BEC18F3B29B46614B5A46EA54330A9C
:10452000DBB299465F4B4A46EA54370CFFB25E4B0A
:10453000EF54330E9A465D4B5246EA5432004146E0
:104540000133E81804F060FC2E9B002B00D188E0BA
:1045500002AC46220021200004F050FC5B46237090
:104560004B466370A7705346E3703200414603A880
:1045700004F04AFC00262423E654DB332822A3540B
:104580000132A3540132A3540132A3540132A35483
:104590000132A3540132A3540132A3540132A35473
:1045A0000132A3540132A3540132A3540132A35463
:1045B0000132A3540132A3540132A354313A2E994B
:1045C00010A804F021FC40230122E2540133E654F8
:1045D0000133E6540133E6542F9B9AB280235B01EA
:1045E00013434422A3541B0A0132A3540096230010
:1045F00001322F492800FFF769FB002023B0F0BCEF
:10460000BB46B246A946A046F0BD2C9B002B04D069
:104610004B46002B03D14C4636E7002434E71A4CB6
:1046200032E780239A4639E780239A4636E702AC80
:104630004B4623701B0A63700123A370E7704A4640
:104640002C9903A804F0E0FB0220FDF75DFB862215
:10465000019700944423520002212800FFF728FA12
:1046600040E700230193009424331A2202212800FA
:10467000FFF71EFA0020C1E701204042BEE7C04616
:10468000D87901100400400006004000020020001C
:10469000207B0110307B0110C4090000487B011011
:1046A0001C0800001D0800001E0800001F08000074
:1046B0005C7B011000B583B0002300930433A52276
:1046C0000221FFF72BFB03B000BD000000B583B053
:1046D000054BC31800220192009324231A320221B1
:1046E000FFF7E6F903B000BD1C080000F0B5DE4698
:1046F0004F464646C0B584B004000E00039298466B
:10470000050038355A4904225C31280004F07CFB4E
:104710003C239946A1440122E25400233C32A35495
:104720000132A3540132A35444320193009508335B
:10473000520000212000FFF7BBF93823E05C013371
:10474000E35C1B0218433A23E35C1B0418433B233E
:10475000E35C1B06184306D0002004B0E0BCBB4657
:10476000B146A846F0BD0023022242492000FFF7CF
:104770007DFA38230122E25400270133E754013344
:10478000E7540133E7540133E654320A0133E2546B
:10479000320C0133E254320E0133E2542300403331
:1047A000202200219B46180004F028FB32000399C8
:1047B000584604F029FB00972B0028222E492000A0
:1047C000FFF784FA00970E9B1E2202212000FFF7BC
:1047D000A5FA00974346012228492000FFF7B5FAC1
:1047E0004346002B2BD0264B98453ED084230026F1
:1047F0000096012223492000FFF7A7FA38230C9ADC
:10480000E254120A3923E25401270133E7540133F9
:10481000E65440220021484604F0F0FA0C9A0D9923
:10482000484604F0F1FA0220FDF76EFA862201975D
:1048300000954423520002212000FFF739F9012599
:10484000009501236E2202212000FFF767FA012361
:1048500016220D492000FFF709FA009501234E2288
:1048600002212000FFF75AFA76E70423BFE7C0468B
:104870009C7B0110D8790110647B0110707B0110C2
:10488000020020007C7B01108C7B011000B583B0FE
:104890000B000022009201320249FFF756FA002075
:1048A00003B000BD987B011010B5006800F000FB5C
:1048B000013843425841C0B210BD000010B5040099
:1048C0000A4B83610A4B43610A4B038639233A2220
:1048D000C2540233C15C020032323039406A00F007
:1048E00021FC38230622E254002010BDF9480010B4
:1048F00079420110DC05000010B582B002000B0007
:10490000406A3B21515C30391A890124009400F03F
:10491000C5FB002802D1002002B010BD01000348F1
:1049200004F0B4FB0C204042F6E7C046507F011073
:1049300070B588B006000D1E37D100230493234BB9
:104940000693234B0593234B0793AB018D22120152
:104950009C1834190434F3181F4A9A1877211170DF
:104960002A0030321D498C4663441A701C4B029356
:104970001C4B0193009606AB05AA04A9200008F081
:104980005FFA002C07D0AB01F31890221201944675
:104990006344154A1A60200008F0E6FA200008F087
:1049A000E9FA002D05D008B070BD104B04930693B2
:1049B000C7E707A9002007F073FD0D4BF118200091
:1049C0000EF0D2FD20000EF02FFFECE7C0A8000192
:1049D000FFFFFF00080808080E0900000F0900008B
:1049E00055560110BD480010747F0110C0A8040185
:1049F0005409000070B58D018D231B019C46654450
:104A000045190435002902D00A4B1C6804E028002F
:104A10000EF0D8FFF8E72468002C09D0AC42FAD198
:104A2000200008F0DDFA002363603922A354F2E786
:104A300070BDC04614BF0020F0B5CE4600B582B0B0
:104A400006000F0001938C018D231B01E318C3188E
:104A50001D1D0419134B9C46644423785B0703D443
:104A600002B080BCB946F0BD93B29946C122520053
:104A70001900002008F054FC041EF1D04A460199A8
:104A800008F0CCFEBF01F619074B9C46664433681C
:104A90002900200098470028E2D0200008F0FCFB05
:104AA000DEE7C0460D090000E408000010B58901EA
:104AB0008D231B019C4661444018043008F0C2FA63
:104AC00010BD10B589018D231B019C46614440181F
:104AD000043008F0D5FA10BD10B58B01C3180B4A8D
:104AE000944663441A7805231340052B09D18901A4
:104AF0004018074B9C4660440368002B04D00320F9
:104B000010BD00F05FFBFBE70220F9E70D09000094
:104B1000D808000010B582B0FDF7B4F8224B1B682E
:104B2000002B19D02148FFF7BFFE002816D11F4ADD
:104B30001F4BD35C002B15D11C4A1E4BD35C002BA2
:104B40001AD11A4A1C4BD35C002B1CD11B4B1B687F
:104B5000002B24D0FDF780F802B010BD1348FEF7FB
:104B60006DFEE4E710000023114A835400930022F5
:104B70006921FEF7FDFFDFE710000E4B0022C25453
:104B8000FFF798FDDDE714000B4B0022E2542000F4
:104B9000FFF79CFD86231B010122E250D6E701218D
:104BA0000248FEF784FDD5E700120020081200201D
:104BB0006D0800006F0800006E080000041200205D
:104BC00010B5040001F098FD002917DB1CD0FA2273
:104BD0009200002303F04EFD01006288134804F0A8
:104BE00055FA6168582915D88B00114A9B58002B3B
:104BF00010D019000F4804F049FA0EE00E4B0F4A8E
:104C00003F210F4802F03CF9FA21890003F0F4FC3F
:104C10000100E2E70B4804F039FAA168E2682E23AC
:104C2000E35C094804F032FA10BDC0467C7F0110F5
:104C300014810110C0790110706C0110FC8001100A
:104C40008C6C0110907F0110947F0110F0B585B03D
:104C50000400FDF717F8294BE35C002B0BD0284B21
:104C60001B68002B0DD000212000FEF720FD002541
:104C7000280005B0F0BD234B234A9021234802F0C1
:104C8000FFF800212000FFF7B5FE01212000FFF70B
:104C9000B1FE1F4B0022E254D0252D06802636049B
:104CA000AE611420FDF730F86E613220FDF72CF86C
:104CB00000212000FFF7B8F9051ED9D1154BE118E6
:104CC0002000FFF78DF9134BE15C134BE25C134BB3
:104CD000E35C1348205C134EA65D134FE45D029421
:104CE00001960090114804F0D1F9114B32221A605C
:104CF0001048034B1860FCF7B6FFB9E76C080000DA
:104D000000120020A07F0110EC800110BC7F011078
:104D10005408000088090000890900008A09000081
:104D20008B0900008C0900008D090000188001101B
:104D300004120020154B001070B505000E00FCF7A2
:104D400099FF2800FFF782FF041E08D131002800D8
:104D5000FFF736F80400FCF7ABFF200070BDFCF74E
:104D6000A7FFFAE770B584B00400FCF783FF2000CA
:104D7000FFF76CFF002816D10C4BE15C0C4BE218DE
:104D80000C4BE35C0C48205C0C4D65198726360102
:104D9000A65D0296019500902000FFF7A7FCFCF7A6
:104DA00087FF04B070BDFCF783FFFAE772080000CC
:104DB00074080000710800007308000094080000E7
:104DC00070B504000D00FCF755FF2000FFF73EFF13
:104DD000002806D129002000FFF758FDFCF768FFE6
:104DE00070BDFCF765FFFBE770B50400D0252D060C
:104DF00080235B04AB6200220021182000F056FAE9
:104E0000802636046E6200220021172000F04EFA40
:104E1000AE6121002000FEF737FC00230C4AA354AA
:104E20000C4AA3500432A3500B4AA3540B4AA35478
:104E30000B4AA35401320321A1540A4AA3540A4A3B
:104E4000A3540A4A13600A4B0122E25470BDC046C3
:104E5000540800005C0800006D0800006E080000A7
:104E60006F080000720800007308000000120020A4
:104E70006C08000010B50400FCF7FCFE0B4B1B682F
:104E8000002B10D000212000FFF7B4FD01212000ED
:104E9000FFF7B0FD2000FEF706FC2000FFF7A4FF9F
:104EA000FCF706FF10BDFCF703FFFBE70012002034
:104EB000D0231B065B681B0E0120184070470000C2
:104EC000014B32221A6070470412002070B50400B2
:104ED0000D00694BC358DB0712D46B68452B13D008
:104EE0000B2B26D0172B34D0002B49D1AB68002BCD
:104EF00027D0032B3CD086231B010222E25020E066
:104F00000800FFF75DFEE8E75C4AA258012AE7D1F6
:104F1000AB68082B05D0002B13D1584B0222E2506E
:104F20000FE0574BE35829003031564AA0589847B4
:104F300007E000212000FFF7C4FD86231B010022AB
:104F4000E25086231B01E2584F4B9A4200D189E080
:104F500070BDAB68002BF4D1EB68082BF1D1073B97
:104F60004A4AA3544A4AA3544A48FCF77CFEE8E75D
:104F7000EB68002BBFD186231B010322E250E0E740
:104F8000032B16D0062B35D0102B40D02E2BD8D18A
:104F9000AB68062B57D0042B03D0082B01D00B2B6A
:104FA00002D1EB680F2B56D086231B010422E2505E
:104FB000C7E7AB68002B16D186231B01E2580F23ED
:104FC0001340042B07D08622120180239B00A15896
:104FD0000B43A350B5E70B339A430E3B1A4386238A
:104FE0001B01E250EFE7062BABD086231B01042206
:104FF000E250A6E7AB68002BA3D1EB68022BA0D14F
:10500000254B0122E2542348FCF72DFE99E7AB68BB
:10501000002B96D16B88DB070FD52E23E95C002986
:1050200007D1862212018023DB00A1580B43A35035
:1050300087E72000FFF73AFD83E72E23E95C200095
:10504000FFF73FFD7DE78622120180231B01A15857
:105050000B43A35075E70D4B0122E2540D48FCF7BA
:1050600002FE6EE786231B010122E2500021200090
:10507000FFF71CFD6CE7C046580800005C08000004
:105080006808000064080000010E00006E080000BF
:105090006F080000154B00106D080000F0B585B0DA
:1050A0000500029103921F000AAB1E78FCF7E2FD97
:1050B0002800FFF7CBFD041E0CD100963B00039A9D
:1050C00002992800FEF79AFC0400FCF7F1FD20008D
:1050D00005B0F0BDFCF7ECFDF9E770B582B0060055
:1050E0000C00FCF7C7FD3000FFF7B0FD051E16D120
:1050F0000F20010021402309FF221A40230B034007
:10510000250C0540240D0440019400953000FFF764
:105110003BF90500FCF7CCFD280002B070BDFCF7A0
:10512000C7FDF9E710B511000020FCF783FB002054
:1051300010BD0000F8B504000D0016001F00FCF7BC
:1051400099FD002E2FD01D4BE35C002B15D0012DB7
:1051500021D01A4BE35C2B41DB0726D42900200029
:10516000FFF748FC29002000FFF7E2FB0122AA40DC
:105170001249635C1343635417E039002000FFF7C2
:10518000DBFD002804D10E492000FFF7A6FFDEE773
:10519000FCF78EFD0BE02000FFF7E4FD012120006D
:1051A000FFF70EFED5E7012D02D0FCF781FDF8BD1B
:1051B00000212000FFF704FEF7E7C0465408000076
:1051C0004211A1000300081E0FD1862212019A5835
:1051D0000F231340012B0AD0022B0AD0032B0BD034
:1051E000042B00D070470338FCE70020FAE71800D2
:1051F000F8E701204042F5E702204042F2E70000D4
:10520000F0B587B00500059116001F00FCF732FDD0
:10521000184BEB5CDB0724D52800FFF717FD041EB5
:1052200024D10F9B03930E9B02930D9B01930C9B28
:1052300000933B00320005992800FFF70DF9041E8A
:105240000AD186231B010122EA500D9B002B03D1BA
:1052500086231B01084AEA50FCF72AFD200007B00C
:10526000F0BDFCF725FD04246442F7E7FCF720FDC0
:10527000F4E7C046540800000108000010B58300A0
:10528000084A944663441C6840226240C02414408B
:105290008022520113431C60C000034B9C466044B3
:1052A000416010BD04C001400040014080000B4B34
:1052B0009C46604400290DD00823002A0CD004220B
:1052C0001343026853400C221340802252011043C2
:1052D000036070470023F0E70022F1E704C00140BB
:1052E000002909D08000094B9C46604480239B0123
:1052F00018430223036070478000044B9C466044BF
:10530000C0239B01184302230360F4E704C001405B
:1053100070B5D0231B061B689D00094C2C592042F8
:1053200007D19B002043064C18510D2000F042F994
:1053300070BD044B044ACC21044801F0A1FDC046D5
:10534000F4CE00207882011050830110A482011055
:1053500010B50400D0231B061B689B000A4A9B580B
:1053600018420BD00D2000F03FFAD0231B061B681B
:1053700005499B005A58A2435A5010BD034B044A9A
:10538000D621044801F07CFDF4CE002000830110FA
:105390002C830110A4820110072303409B00C00846
:1053A00099403C308000014BC150704700400140A3
:1053B000F8B507000C0016001D00FFF7EDFFFB0815
:1053C0009B00ED180720384080008440002E04D058
:1053D00080239B011D432C60F8BDC0239B011D430E
:1053E0002C60F9E710B5D0231B061B68002B03D0F7
:1053F000024BFFF7DDFF10BD014BFAE730410140E2
:105400000041014010B501238340D022120693626F
:1054100093610521FFF732FF10BD0000074B9B6829
:10542000103080001950BFF35F8FBFF35F8F044BC4
:105430000021196082F310887047C04600ED00E03B
:10544000240100D01F23181A7047000010B5091A54
:10545000081F0A4B9C466144094A914208D8C30779
:1054600006D440104005400D064B184380B210BDD5
:10547000054B064A9921064801F002FDFC07000091
:10548000FE0F000000E0FFFF848301100086011082
:10549000B483011010B5091A04394C08090B08D15E
:1054A0004905490D064A11430180064B23434380B9
:1054B00010BD054B054AA121054801F0E1FCC0469D
:1054C00000F0FFFF00F8FFFF10840110D4850110E9
:1054D000B483011001238340034A10681840431E1F
:1054E0009841C0B27047C04600E100E0002904D0F6
:1054F000034B1860034B18607047034B1860FBE7C1
:1055000080E200E000E100E080E100E010B501236E
:1055100083401800FFF7EAFF10BD0000012383401D
:10552000014A13607047C04600E200E0024B9B68EE
:1055300010308000C058704700ED00E010B5FFF754
:10554000F5FF002805D0054BC01A2F2803D80120ED
:1055500010BD0020FCE70020FAE7C0461409002037
:1055600070B504000D00EFF3108672B60C4B1B688B
:10557000002BFBD0BFF35F8F2000FFF7D7FF094B55
:10558000984201D0A84205D1320029002000FFF73F
:1055900045FF70BD044B054A7C21054801F070FCB5
:1055A000240100D0CD0100102084011034860110A8
:1055B000B4830110F0B5DE4657464E464546E0B589
:1055C00089B0814601911500EFF3108A72B6744BD1
:1055D0001B68002BFBD0BFF35F8F724B0027DF5798
:1055E000002F40DB7C00E419A4006F482418062239
:1055F000A2566C4B1A706D4B9A684B4610339B0049
:10560000D35898461E001B1A2F2B38D9684B984543
:105610002FD105AE674B33807B009B46D8198000A5
:10562000614B9846404402306349FFF70FFF70809A
:10563000624BB380FF23B371F571019B07935F4405
:10564000BF0047440ECE0EC701231C43A04652465E
:1056500041464846FFF7E2FE09B0F0BCBB46B24601
:10566000A946A046F0BD564B564ACD21564801F0FA
:1056700007FC564B534AD421534801F001FCC04368
:1056800040440C2102F0B8FF002912D101239E43AF
:10569000B34633000026DA79AA4211D906215956B9
:1056A00000290CDB4A00521892001E003E4B9B184A
:1056B000F1E7474B434AE021434801F0E1FB1E007C
:1056C000002E3AD005AB434A1A80813A5A8006230D
:1056D000F3560293002B17DA3F4805AB9B469880A0
:1056E000029A9A71DD71019A0792301D2100FFF72D
:1056F000ADFEB080B7717B00DB199B002A4FFF180D
:105700005B4607CB07C7A2E77800C0198000264B8D
:10571000C0180430321DB388D90A1C2907D15B0593
:105720005915023149005118FFF790FED5E72B4B70
:105730002B4AA721244801F0A3FB05AE1D4B338063
:105740007B000293D8198000174A90460200424419
:105750000392901C1849FFF779FE7080039A101D80
:105760005946FFF773FEB0801E4B5A464146521A07
:10577000524153431B0DB371F571019A0792029B7D
:105780009C466744BF0047440ECE0EC7114B5A4695
:105790001380813B538001231C43A04657E7C0463A
:1057A000240100D0ADD100201409002000ED00E05C
:1057B000CD01001000A1FFFF4409002001BDFFFF43
:1057C000588401101C860110B483011080840110DC
:1057D000A88401100148000001BD00001C850110D3
:1057E0000C860110AAAA0000F0B5CE46474680B547
:1057F00083B006000D00EFF3108872B6564B1B689D
:10580000002BFBD0BFF35F8F544B9A6834001034E9
:10581000A300D758524B9F4207D0AF4200D198E027
:105820000197504BFB1A2F2B09D942463900300003
:10583000FFF7F4FD03B0C0BCB946B046F0BD300080
:10584000FFF748FE814600213000FFF75FFEBFF3FF
:105850005F8FEFF30581002901D08C4211D1012324
:10586000019C9C430022A368AB4212D00622A256A0
:10587000002A0DDB53009B189B002200394CE418D2
:10588000F1E72C21384B394AFF31394801F0F8FA59
:105890002200AB4256D106256557002D38DB6B0040
:1058A0005B199A002F4B9B189A68A260DA79E27113
:1058B00006229A56A2719B795BB2002B0FDA2D4813
:1058C000A0806B005B199B00264AD3182A4A1178E6
:1058D0009971157049463000FFF718FEA5E7201DA5
:1058E0006B005B199B001F4A9B181A1D9B88D90AE5
:1058F0001C2907D15B055B15023359005118FFF7CE
:10590000A5FDDDE71D4B1E4AA721194801F0B8FA95
:10591000002912D1002A0ED0FF239371194B9380D6
:10592000154A1378A371184B0E49641A64416343F6
:105930001B0D1370CEE70A4FF2E7201D1349FFF746
:10594000A9FDC7E76021124B084AFF31084801F062
:1059500097FA034F69E7C046240100D000ED00E04C
:10596000CD0100101409002034850110EC850110D0
:10597000B483011001BD0000ADD100201C850110D1
:105980000C86011001BDFFFFAAAA00004E090020ED
:105990005885011010B5032304009C43064A944621
:1059A000644422681840C000FC3383409A431300CB
:1059B00081400B43236010BD00E400E070B501217D
:1059C00001432E4BCB1A2F2B28D8EFF30583002B46
:1059D0002BD0EFF3108C72B6294A1268002AFBD044
:1059E000BFF35F8F274A0400244D641B6441624368
:1059F000120D54B2244A92689B00D2588A421BD09E
:105A00000022032A32D853009B189B001B49CB1855
:105A10009B795BB2A3421FD00132F2E7C2211B4B3C
:105A20001B4A49001B4801F02BFA88211A4B184ADF
:105A3000FF31184801F024FA134A92681749D150EF
:105A4000174B1A7882711C70BFF35F8F0C4B0022CA
:105A50001A608CF3108870BD0D00530099188900EE
:105A60006918FF268E710F4A8A80E9E7CC210E4B18
:105A7000074A4900074801F003FAC046140900200C
:105A8000240100D0AAAA000000ED00E0608501100A
:105A9000B8850110B483011088850110CD01001074
:105AA000ADD1002001BDFFFF948501100022044B01
:105AB00002E0044902C30132072AFAD97047C046FE
:105AC00000E400E08080808010B5D0231B061C68B5
:105AD000FFF7B8FC010002480019FCF72FFA10BDCF
